:10061C00E4F51FF5201207351206D77F007EC27D48
:10062C00017C0012002ED2AF120400BF0103751F13
:10063C000112072CEC4D4E4F70EEE51FB401E91280
:0A064C000706120656E4F51F80DED3
:1005E000042E000000000434000000000232006409
:0605F0000438000001F4D4
:1006D700E4753101F530F52FF52E120003020721DD
:10000300538E9F53C8FE75CB0375CA2A85CBCD8506
:0A001300CACC75C804D2ADC2CA22DF
:0B072100D281D2B4D2B3D282C28122B6
:10051D00EF24FF9282C281AF2DAE2CAD2BAC2AEC15
:10052D004D4E4F605FE47FE87E03FDFCAB2DAA2CA2
:10053D00A92BA82AC31202B8E4501A7B02FAF9F8C3
:10054D00AF2DAE2CAD2BAC2A1202188F3B8E3A8DEF
:10055D00398C38800A753BF4753A01F539F53885D3
:10056D002D31852C30852B2F852A2EE4F537F53648
:10057D00F535F53475CB0475CAB375CD0475CCB3AB
:05058D00D2CAD2AF222A
:1006AD008F288E278D268C258F2D8E2C8D2B8C2A89
:0506BD007F0102051D94
:1006C2008F288E278D268C258F2D8E2C8D2B8C2A74
:0506D200E4FF02051D1C
:0E070600C281C2CAE4F531F530F52FF52E227E
:09072C00AF31AE30AD2FAC2E222E
:03002B000202C905
:1002C900C0E0C0F0C083C082C0D075D000C000C0FB
:1002D90001C002C003C004C005C006C007C280E552
:1002E9003124FFF531E53034FFF530E52F34FFF5E2
:1002F9002FE52E34FFF52EE5372401F537E43536A1
:10030900F536E43535F535E43534F534AF31AE300D
:10031900AD2FAC2EEC4D4E4F7002C2CA30820A0589
:1003290033E533700C05328008E533153370021557
:1003390032E47F20FEFDFCAB31AA30A92FA82ED3D1
:100349001202B84014E47F20FEFDFCAB37AA36A99F
:1003590035A834D31202B8500C75CB0475CAB375DD
:10036900CD0475CCB3AF3BAE3AAD39AC38AB31AA9D
:1003790030A92FA82EC31202B8500BE47F207E0C9F
:10038900FDFCA82E801FAF3BAE3AAD39AC38AB3778
:10039900AA36A935A834C31202B8503AE47F207EA0
:1003A9000CFDFCA83412018DAB3BAA3AA939A83837
:1003B900120218EF2420FBE43EFAE43DF9E43CF88C
:1003C9007FB07E697D1F7C001202181202AA8ECBB3
:1003D9008FCA8ECD8FCCD280C2CEC2CFD007D006E5
:1003E900D005D004D003D002D001D000D0D0D08223
:0703F900D083D0F0D0E03208
:1006E70012071412071412071412071443EF1022EB
:0907350012001D12068802073EA5
:07073E0043B20375EF042232
:1006880075A4D775A60375A71E75D4C775D53C750F
:10069800D60343F23C43903C53803F75A0FC75E180
:0506A8000175E2402293
:04001D0053D9BF22D2
:0C0714007F307E807D54DDFEDEFCDFFACD
:0107200022B6
:0E06F70000007F017EEF7D4EDDFEDEFCDFFAAF
:0107050022D1
:1005F6000619000000000000060B000000000000C5
:10060600011800010A000612000000000000011196
:050616000002080000D5
:10002E008F248E238D228C21759810AB24AA23A9A0
:10003E0022A8217F207ED77D757C01120218E47BD9
:10004E0002FAF9F8120218E4FB7A01F9F812021812
:10005E00E47B01FAF9F8D31202B8402AAB24AA23A2
:10006E00A922A8217F207ED77D757C01120218E47B
:10007E007B02FAF9F81202181202AA8F8D538EF42F
:10008E00438E08020178AB24AA23A922A8217F203F
:10009E007ED77D757C01120218E47B02FAF9F81204
:1000AE000218E4FB7A01F9F8120218E47B04FAF95B
:1000BE00F8D31202B84033AB24AA23A922A8217F79
:1000CE00207ED77D757C01120218E47B02FAF9F8C6
:1000DE00120218E47B04FAF9F81202181202AA8F1F
:1000EE008D538EF4438E01020178AB24AA23A922EC
:1000FE00A8217F207ED77D757C01120218E47B0239
:10010E00FAF9F8120218E4FB7A01F9F8120218E46F
:10011E007B0CFAF9F8D31202B8AB24AA23A922A8B1
:10012E00217F207ED77D757C01401F120218E47B53
:10013E0002FAF9F8120218E47B0CFAF9F812021816
:10014E001202AA8F8D538EF48020120218E47B02C5
:10015E00FAF9F8120218E47B30FAF9F812021812C2
:10016E0002AA8F8D538EF4438E02858D8B53890F89
:0F017E00438920D28E43B810C2B1C2B2D2AC2294
:10065600E4FD7C0120B2FD751965751A01E508F502
:100666001B85091CECC39404500A74192CF8E62D5A
:10067600FD0C80F0EDF51D751E6EE4F518D2B2D2B4
:0106860099DA
:010687002250
:10040000E4FBF524F523F522F521E51170037FFFC8
:1004100022E4F511FA740B2AF8E6FF74122AF8A602
:1004200007740B2AF8E4F60ABA06EA7A0174122A6B
:10043000F8E62BFB0ABA04F5E512B4430AE517B453
:100440006805E5166B60037F0022E514FEE515FFE5
:10045000E48F248E23F522F521852308852409E5E0
:1004600013247E600C146016245D701F1207068032
:100470001DAF24AE23AD22AC211206AD8010AF24F7
:10048000AE23AD22AC211206C280037F02227F017F
:010490002249
:0300230002059241
:10059200C0E0C0D075D000C000C007309819AF0AC3
:1005A200050A740B2FF8A699E50AC394064006754E
:1005B2000A00751101C29830991BE518C3940650C0
:1005C2000DAF18051874192FF8E6F59980057518FE
:0E05D20000C2B2C299D007D000D0D0D0E03223
:0300000002049166
:0C049100787FE4F6D8FD75813B0204D8AA
:10018D00E88FF0A4CC8BF0A42CFCE98EF0A42CFC11
:10019D008AF0EDA42CFCEA8EF0A4CDA8F08BF0A48F
:1001AD002DCC3825F0FDE98FF0A42CCD35F0FCEBEE
:1001BD008EF0A4FEA9F0EB8FF0A4CFC5F02ECD39B3
:0F01CD00FEE43CFCEAA42DCE35F0FDE43CFC2220
:1001DC0075F008758200EF2FFFEE33FECD33CDCCDA
:1001EC0033CCC58233C5829BED9AEC99E58298405D
:1001FC000CF582EE9BFEED9AFDEC99FC0FD5F0D63A
:10020C00E4CEFBE4CDFAE4CCF9A88222B800C1B963
:10021C000059BA002DEC8BF084CFCECDFCE5F0CBA1
:10022C00F97818EF2FFFEE33FEED33FDEC33FCEBDA
:10023C0033FB10D703994004EB99FB0FD8E5E4F995
:10024C00FA227818EF2FFFEE33FEED33FDEC33FC82
:10025C00C933C910D7059BE99A4007EC9BFCE99A76
:10026C00F90FD8E0E4C9FAE4CCFB2275F010EF2FBB
:10027C00FFEE33FEED33FDCC33CCC833C810D707BB
:10028C009BEC9AE899400AED9BFDEC9AFCE899F8F6
:0E029C000FD5F0DAE4CDFBE4CCFAE4C8F92289
:0E02AA00C3E49FFFE49EFEE49DFDE49CFC2265
:1002B800EB9FF5F0EA9E42F0E99D42F0E89C45F09C
:0102C8002213
:10049D0002061CE493A3F8E493A34003F68001F253
:1004AD0008DFF48029E493A3F85407240CC8C33360
:1004BD00C4540F4420C8834004F456800146F6DF2F
:1004CD00E4800B01020408102040809005E0E47EDA
:1004DD00019360BCA3FF543F30E509541FFEE49324
:1004ED00A360010ECF54C025E060A840B8E493A3EB
:1004FD00FAE493A3F8E493A3C8C582C8CAC583CA16
:10050D00F0A3C8C582C8CAC583CADFE9DEE780BECD
:01061B0000DE
:00000001FF
