:0300000002048D6A
:0C048D00787FE4F6D8FD75813B0204D4B2
:10061800E4F51FF5201207311206D37F007EC27D54
:10062800017C0012002ED2AF1203FCBF0103751F1C
:1006380001120728EC4D4E4F70EEE51FB401E91288
:0A0648000702120652E4F51F80DEDF
:1005DC00042E00000000043400000000023200640D
:0605EC0004380000012CA0
:1006D300E4753101F530F52FF52E12000302071DE5
:10000300538E9F53C8FE75CB0375CA2A85CBCD8506
:0A001300CACC75C804D2ADC2CA22DF
:0B071D00D281D2B4D2B3D282C28122BA
:10051900EF24FF9282C281AF2DAE2CAD2BAC2AEC19
:100529004D4E4F605FE47F587E02FDFCAB2DAA2C37
:10053900A92BA82AC31202B6E4501A7B02FAF9F8C9
:10054900AF2DAE2CAD2BAC2A1202168F3B8E3A8DF5
:10055900398C38800A753B2C753A01F539F538859F
:100569002D31852C30852B2F852A2EE4F537F5364C
:10057900F535F53475CB0475CAB375CD0475CCB3AF
:05058900D2CAD2AF222E
:1006A9008F288E278D268C258F2D8E2C8D2B8C2A8D
:0506B9007F010205199C
:1006BE008F288E278D268C258F2D8E2C8D2B8C2A78
:0506CE00E4FF02051924
:0E070200C281C2CAE4F531F530F52FF52E2282
:09072800AF31AE30AD2FAC2E2232
:03002B000202C707
:1002C700C0E0C0F0C083C082C0D075D000C000C0FD
:1002D70001C002C003C004C005C006C007C280E554
:1002E7003124FFF531E53034FFF530E52F34FFF5E4
:1002F7002FE52E34FFF52EE5372401F537E43536A3
:10030700F536E43535F535E43534F534AF31AE300F
:10031700AD2FAC2EEC4D4E4F7002C2CA30820A058B
:1003270033E533700C05328008E533153370021559
:1003370032E47F10FEFDFCAB31AA30A92FA82ED3E3
:100347001202B64014E47F10FEFDFCAB37AA36A9B3
:1003570035A834D31202B6500C75CB0475CAB375E1
:10036700CD0475CCB3AF3BAE3AAD39AC38AB31AA9F
:1003770030A92FA82EC31202B6500AE4FF7E06FD4D
:10038700FCA82E801EAF3BAE3AAD39AC38AB37AACE
:1003970036A935A834C31202B65039E4FF7E06FDEC
:1003A700FCA83412018BAB3BAA3AA939A838120230
:1003B70016EF2420FBE43EFAE43DF9E43CF87FB075
:1003C7007E697D1F7C001202161202A88ECB8FCA8F
:1003D7008ECD8FCCD280C2CEC2CFD007D006D0056B
:1003E700D004D003D002D001D000D0D0D082D083A7
:0503F700D0F0D0E0325F
:1006E30012071012071012071012071043EF1022FF
:0907310012001D12068402073AB1
:07073A0043B20375EF042236
:1006840075A4D775A60375A71E75D4C775D53C7513
:10069400D60343F23C43903C53803F75A0FC75E184
:0506A4000175E2402297
:04001D0053D9BF22D2
:0C0710007F307E807D54DDFEDEFCDFFAD1
:01071C0022BA
:0E06F30000007F017EEF7D4EDDFEDEFCDFFAB3
:0107010022D5
:1005F2000619000000000000060B000000000000C9
:10060200011800010A00061200000000000001119A
:050612000002080000D9
:10002E008F248E238D228C21759810AB24AA23A9A0
:10003E0022A8217F207ED77D757C01120216E47BDB
:10004E0002FAF9F8120216E4FB7A01F9F812021616
:10005E00E47B01FAF9F8D31202B64029AB24AA23A5
:10006E00A922A8217F207ED77D757C01120216E47D
:10007E007B02FAF9F81202161202A88F8D538EF433
:10008E00438E082176AB24AA23A922A8217F207EA5
:10009E00D77D757C01120216E47B02FAF9F8120282
:1000AE0016E4FB7A01F9F8120216E47B04FAF9F869
:1000BE00D31202B64032AB24AA23A922A8217F2054
:1000CE007ED77D757C01120216E47B02FAF9F812D6
:1000DE000216E47B04FAF9F81202161202A88F8DAA
:1000EE00538EF4438E012176AB24AA23A922A82194
:1000FE007F207ED77D757C01120216E47B02FAF911
:10010E00F8120216E4FB7A01F9F8120216E47B0CDF
:10011E00FAF9F8D31202B6AB24AA23A922A8217F9A
:10012E00207ED77D757C01401F120216E47B02FAF9
:10013E00F9F8120216E47B0CFAF9F8120216120202
:10014E00A88F8D538EF48020120216E47B02FAF9EA
:10015E00F8120216E47B30FAF9F81202161202A80F
:10016E008F8D538EF4438E02858D8B53890F438969
:0D017E0020D28E43B810C2B1C2B2D2AC2262
:10065200E4FD7C0120B2FD751965751A01E508F506
:100662001B85091CECC39404500A74192CF8E62D5E
:10067200FD0C80F0EDF51D751E6EE4F518D2B2D2B8
:0106820099DE
:010683002254
:1003FC00E4FBF524F523F522F521E51170037FFFCD
:10040C0022E4F511FA740B2AF8E6FF74122AF8A606
:10041C0007740B2AF8E4F60ABA06EA7A0174122A6F
:10042C00F8E62BFB0ABA04F5E512B4430AE517B457
:10043C006805E5166B60037F0022E514FEE515FFE9
:10044C00E48F248E23F522F521852308852409E5E4
:10045C0013247E600C146016245D701F120702803A
:10046C001DAF24AE23AD22AC211206A98010AF24FF
:10047C00AE23AD22AC211206BE80037F02227F0187
:01048C00224D
:0300230002058E45
:10058E00C0E0C0D075D000C000C007309819AF0AC7
:10059E00050A740B2FF8A699E50AC3940640067552
:1005AE000A00751101C29830991BE518C3940650C4
:1005BE000DAF18051874192FF8E6F5998005751802
:0E05CE0000C2B2C299D007D000D0D0D0E03227
:10049900020618E493A3F8E493A34003F68001F25B
:1004A90008DFF48029E493A3F85407240CC8C33364
:1004B900C4540F4420C8834004F456800146F6DF33
:1004C900E4800B01020408102040809005DCE47EE2
:1004D900019360BCA3FF543F30E509541FFEE49328
:1004E900A360010ECF54C025E060A840B8E493A3EF
:1004F900FAE493A3F8E493A3C8C582C8CAC583CA1A
:10050900F0A3C8C582C8CAC583CADFE9DEE780BED1
:0106170000E2
:10018B00E88FF0A4CC8BF0A42CFCE98EF0A42CFC13
:10019B008AF0EDA42CFCEA8EF0A4CDA8F08BF0A491
:1001AB002DCC3825F0FDE98FF0A42CCD35F0FCEBF0
:1001BB008EF0A4FEA9F0EB8FF0A4CFC5F02ECD39B5
:0F01CB00FEE43CFCEAA42DCE35F0FDE43CFC2222
:1001DA0075F008758200EF2FFFEE33FECD33CDCCDC
:1001EA0033CCC58233C5829BED9AEC99E58298405F
:1001FA000CF582EE9BFEED9AFDEC99FC0FD5F0D63C
:10020A00E4CEFBE4CDFAE4CCF9A88222B800C1B965
:10021A000059BA002DEC8BF084CFCECDFCE5F0CBA3
:10022A00F97818EF2FFFEE33FEED33FDEC33FCEBDC
:10023A0033FB10D703994004EB99FB0FD8E5E4F997
:10024A00FA227818EF2FFFEE33FEED33FDEC33FC84
:10025A00C933C910D7059BE99A4007EC9BFCE99A78
:10026A00F90FD8E0E4C9FAE4CCFB2275F010EF2FBD
:10027A00FFEE33FEED33FDCC33CCC833C810D707BD
:10028A009BEC9AE899400AED9BFDEC9AFCE899F8F8
:0E029A000FD5F0DAE4CDFBE4CCFAE4C8F9228B
:0E02A800C3E49FFFE49EFEE49DFDE49CFC2267
:1002B600EB9FF5F0EA9E42F0E99D42F0E89C45F09E
:0102C6002215
:00000001FF
